{
  "contractName": "RealEstate",
  "abi": [
    {
      "inputs": [],
      "stateMutability": "nonpayable",
      "type": "constructor"
    },
    {
      "anonymous": false,
      "inputs": [
        {
          "indexed": true,
          "internalType": "address",
          "name": "userAddress",
          "type": "address"
        }
      ],
      "name": "ECPSigned",
      "type": "event"
    },
    {
      "anonymous": false,
      "inputs": [
        {
          "indexed": true,
          "internalType": "uint256",
          "name": "propertyId",
          "type": "uint256"
        }
      ],
      "name": "PropertyApproved",
      "type": "event"
    },
    {
      "anonymous": false,
      "inputs": [
        {
          "indexed": true,
          "internalType": "uint256",
          "name": "propertyId",
          "type": "uint256"
        },
        {
          "indexed": true,
          "internalType": "address",
          "name": "owner",
          "type": "address"
        }
      ],
      "name": "PropertyListed",
      "type": "event"
    },
    {
      "anonymous": false,
      "inputs": [
        {
          "indexed": true,
          "internalType": "uint256",
          "name": "propertyId",
          "type": "uint256"
        },
        {
          "indexed": true,
          "internalType": "address",
          "name": "seller",
          "type": "address"
        },
        {
          "indexed": true,
          "internalType": "address",
          "name": "buyer",
          "type": "address"
        },
        {
          "indexed": false,
          "internalType": "uint256",
          "name": "price",
          "type": "uint256"
        }
      ],
      "name": "PropertySold",
      "type": "event"
    },
    {
      "anonymous": false,
      "inputs": [
        {
          "indexed": true,
          "internalType": "address",
          "name": "userAddress",
          "type": "address"
        },
        {
          "indexed": false,
          "internalType": "string",
          "name": "name",
          "type": "string"
        }
      ],
      "name": "UserRegistered",
      "type": "event"
    },
    {
      "anonymous": false,
      "inputs": [
        {
          "indexed": true,
          "internalType": "address",
          "name": "userAddress",
          "type": "address"
        }
      ],
      "name": "UserVerified",
      "type": "event"
    },
    {
      "inputs": [],
      "name": "admin",
      "outputs": [
        {
          "internalType": "address",
          "name": "",
          "type": "address"
        }
      ],
      "stateMutability": "view",
      "type": "function",
      "constant": true
    },
    {
      "inputs": [
        {
          "internalType": "uint256",
          "name": "",
          "type": "uint256"
        }
      ],
      "name": "properties",
      "outputs": [
        {
          "internalType": "uint256",
          "name": "id",
          "type": "uint256"
        },
        {
          "internalType": "address",
          "name": "owner",
          "type": "address"
        },
        {
          "internalType": "string",
          "name": "title",
          "type": "string"
        },
        {
          "internalType": "string",
          "name": "description",
          "type": "string"
        },
        {
          "internalType": "string",
          "name": "location",
          "type": "string"
        },
        {
          "internalType": "uint256",
          "name": "price",
          "type": "uint256"
        },
        {
          "internalType": "uint256",
          "name": "roomCount",
          "type": "uint256"
        },
        {
          "internalType": "uint256",
          "name": "squareMeters",
          "type": "uint256"
        },
        {
          "internalType": "string",
          "name": "documents",
          "type": "string"
        },
        {
          "internalType": "bool",
          "name": "isApproved",
          "type": "bool"
        },
        {
          "internalType": "bool",
          "name": "isSold",
          "type": "bool"
        }
      ],
      "stateMutability": "view",
      "type": "function",
      "constant": true
    },
    {
      "inputs": [],
      "name": "propertyCounter",
      "outputs": [
        {
          "internalType": "uint256",
          "name": "",
          "type": "uint256"
        }
      ],
      "stateMutability": "view",
      "type": "function",
      "constant": true
    },
    {
      "inputs": [],
      "name": "transactionCounter",
      "outputs": [
        {
          "internalType": "uint256",
          "name": "",
          "type": "uint256"
        }
      ],
      "stateMutability": "view",
      "type": "function",
      "constant": true
    },
    {
      "inputs": [
        {
          "internalType": "uint256",
          "name": "",
          "type": "uint256"
        }
      ],
      "name": "transactions",
      "outputs": [
        {
          "internalType": "uint256",
          "name": "id",
          "type": "uint256"
        },
        {
          "internalType": "uint256",
          "name": "propertyId",
          "type": "uint256"
        },
        {
          "internalType": "address",
          "name": "seller",
          "type": "address"
        },
        {
          "internalType": "address",
          "name": "buyer",
          "type": "address"
        },
        {
          "internalType": "uint256",
          "name": "price",
          "type": "uint256"
        },
        {
          "internalType": "uint256",
          "name": "timestamp",
          "type": "uint256"
        }
      ],
      "stateMutability": "view",
      "type": "function",
      "constant": true
    },
    {
      "inputs": [
        {
          "internalType": "address",
          "name": "",
          "type": "address"
        }
      ],
      "name": "users",
      "outputs": [
        {
          "internalType": "string",
          "name": "name",
          "type": "string"
        },
        {
          "internalType": "string",
          "name": "kycDocument",
          "type": "string"
        },
        {
          "internalType": "bool",
          "name": "isVerified",
          "type": "bool"
        },
        {
          "internalType": "bool",
          "name": "hasSignedECP",
          "type": "bool"
        }
      ],
      "stateMutability": "view",
      "type": "function",
      "constant": true
    },
    {
      "inputs": [
        {
          "internalType": "string",
          "name": "_name",
          "type": "string"
        },
        {
          "internalType": "string",
          "name": "_kycDocument",
          "type": "string"
        }
      ],
      "name": "registerUser",
      "outputs": [],
      "stateMutability": "nonpayable",
      "type": "function"
    },
    {
      "inputs": [
        {
          "internalType": "address",
          "name": "_userAddress",
          "type": "address"
        }
      ],
      "name": "verifyUser",
      "outputs": [],
      "stateMutability": "nonpayable",
      "type": "function"
    },
    {
      "inputs": [],
      "name": "signECP",
      "outputs": [],
      "stateMutability": "nonpayable",
      "type": "function"
    },
    {
      "inputs": [
        {
          "internalType": "string",
          "name": "_title",
          "type": "string"
        },
        {
          "internalType": "string",
          "name": "_description",
          "type": "string"
        },
        {
          "internalType": "string",
          "name": "_location",
          "type": "string"
        },
        {
          "internalType": "uint256",
          "name": "_price",
          "type": "uint256"
        },
        {
          "internalType": "uint256",
          "name": "_roomCount",
          "type": "uint256"
        },
        {
          "internalType": "uint256",
          "name": "_squareMeters",
          "type": "uint256"
        },
        {
          "internalType": "string[]",
          "name": "_images",
          "type": "string[]"
        },
        {
          "internalType": "string",
          "name": "_documents",
          "type": "string"
        }
      ],
      "name": "listProperty",
      "outputs": [],
      "stateMutability": "nonpayable",
      "type": "function"
    },
    {
      "inputs": [
        {
          "internalType": "uint256",
          "name": "_propertyId",
          "type": "uint256"
        }
      ],
      "name": "approveProperty",
      "outputs": [],
      "stateMutability": "nonpayable",
      "type": "function"
    },
    {
      "inputs": [
        {
          "internalType": "uint256",
          "name": "_propertyId",
          "type": "uint256"
        }
      ],
      "name": "buyProperty",
      "outputs": [],
      "stateMutability": "payable",
      "type": "function",
      "payable": true
    },
    {
      "inputs": [],
      "name": "getPropertyCount",
      "outputs": [
        {
          "internalType": "uint256",
          "name": "",
          "type": "uint256"
        }
      ],
      "stateMutability": "view",
      "type": "function",
      "constant": true
    },
    {
      "inputs": [],
      "name": "getTransactionCount",
      "outputs": [
        {
          "internalType": "uint256",
          "name": "",
          "type": "uint256"
        }
      ],
      "stateMutability": "view",
      "type": "function",
      "constant": true
    },
    {
      "inputs": [
        {
          "internalType": "address",
          "name": "_userAddress",
          "type": "address"
        }
      ],
      "name": "getUserProperties",
      "outputs": [
        {
          "internalType": "uint256[]",
          "name": "",
          "type": "uint256[]"
        }
      ],
      "stateMutability": "view",
      "type": "function",
      "constant": true
    },
    {
      "inputs": [
        {
          "internalType": "uint256",
          "name": "_propertyId",
          "type": "uint256"
        }
      ],
      "name": "getPropertyTransactions",
      "outputs": [
        {
          "internalType": "uint256[]",
          "name": "",
          "type": "uint256[]"
        }
      ],
      "stateMutability": "view",
      "type": "function",
      "constant": true
    }
  ],
  "bytecode": "0x60806040523480156200001157600080fd5b50600080546001600160a01b03191633908117825581526001602081815260408084206002908101805460ff19168517905584546001600160a01b039081168652828620909101805461ff00191661010017905581518083018352600581526420b236b4b760d91b8185015285549091168552929091529091209062000098908262000144565b5062000210565b634e487b7160e01b600052604160045260246000fd5b600181811c90821680620000ca57607f821691505b602082108103620000eb57634e487b7160e01b600052602260045260246000fd5b50919050565b601f8211156200013f57600081815260208120601f850160051c810160208610156200011a5750805b601f850160051c820191505b818110156200013b5782815560010162000126565b5050505b505050565b81516001600160401b038111156200016057620001606200009f565b6200017881620001718454620000b5565b84620000f1565b602080601f831160018114620001b05760008415620001975750858301515b600019600386901b1c1916600185901b1785556200013b565b600085815260208120601f198616915b82811015620001e157888601518255948401946001909101908401620001c0565b5085821015620002005787850151600019600388901b60f8161c191681555b5050505050600190811b01905550565b61175e80620002206000396000f3fe6080604052600436106100f35760003560e01c80637326b9011161008a578063d090e47e11610059578063d090e47e146102ef578063e9b66f8c14610305578063f7b1080814610325578063f851a4401461035c57600080fd5b80637326b901146101f15780639ace38c214610206578063a87430ba1461029f578063ccff11b6146102cf57600080fd5b80632e7700f0116100c65780632e7700f01461019457806346ff8a95146101a95780634d813120146101be5780636fa830a6146101de57600080fd5b8063060a3e61146100f857806314e887e81461012e5780631d2e4afd1461015257806324a476b314610174575b600080fd5b34801561010457600080fd5b506101186101133660046110d7565b610394565b6040516101259190611107565b60405180910390f35b34801561013a57600080fd5b5061014460055481565b604051908152602001610125565b34801561015e57600080fd5b5061017261016d366004611202565b6104aa565b005b34801561018057600080fd5b5061017261018f366004611305565b61051a565b3480156101a057600080fd5b50600554610144565b3480156101b557600080fd5b506101726106b5565b3480156101ca57600080fd5b506101726101d93660046110d7565b6106fc565b6101726101ec3660046113f4565b610778565b3480156101fd57600080fd5b50600454610144565b34801561021257600080fd5b506102656102213660046113f4565b6003602081905260009182526040909120805460018201546002830154938301546004840154600590940154929491936001600160a01b0392831693929091169186565b6040805196875260208701959095526001600160a01b039384169486019490945291166060840152608083015260a082015260c001610125565b3480156102ab57600080fd5b506102bf6102ba3660046110d7565b610ae8565b6040516101259493929190611453565b3480156102db57600080fd5b506101186102ea3660046113f4565b610c26565b3480156102fb57600080fd5b5061014460045481565b34801561031157600080fd5b506101726103203660046113f4565b610d1e565b34801561033157600080fd5b506103456103403660046113f4565b610d8e565b6040516101259b9a99989796959493929190611491565b34801561036857600080fd5b5060005461037c906001600160a01b031681565b6040516001600160a01b039091168152602001610125565b6060600060015b60045481116103e8576000818152600260205260409020600101546001600160a01b038086169116036103d657816103d281611543565b9250505b806103e081611543565b91505061039b565b5060008167ffffffffffffffff8111156104045761040461114b565b60405190808252806020026020018201604052801561042d578160200160208202803683370190505b5060009250905060015b60045481116104a2576000818152600260205260409020600101546001600160a01b0380871691160361049057808284815181106104775761047761155c565b60209081029190910101528261048c81611543565b9350505b8061049a81611543565b915050610437565b509392505050565b336000908152600160205260409020806104c484826115fb565b50600181016104d383826115fb565b50336001600160a01b03167f48cac28ad4dc618e15f4c2dd5e97751182f166de97b25618318b2112aa951a2f8460405161050d91906116bb565b60405180910390a2505050565b3360009081526001602052604090206002015460ff166105755760405162461bcd60e51b8152602060048201526011602482015270155cd95c881b9bdd081d995c9a599a5959607a1b60448201526064015b60405180910390fd5b33600090815260016020526040902060020154610100900460ff166105d65760405162461bcd60e51b815260206004820152601760248201527605573657220686173206e6f74207369676e65642045435604c1b604482015260640161056c565b600480549060006105e683611543565b909155505060045460008181526002602081905260409091209182556001820180546001600160a01b0319163317905581016106228a826115fb565b506003810161063189826115fb565b506004810161064088826115fb565b50600581018690556006810185905560078101849055825161066b9060088301906020860190611012565b506009810161067a83826115fb565b506004546040513391907ff87f2a75e739b4da82608cb2e6016f1e1d5059321f8ea6869955aeba65012c7590600090a3505050505050505050565b33600081815260016020526040808220600201805461ff001916610100179055517fba4c0198c040d7aed598a1ac4513934714d2f78a2e6730d9347234a24f3977779190a2565b6000546001600160a01b031633146107265760405162461bcd60e51b815260040161056c906116ce565b6001600160a01b0381166000818152600160208190526040808320600201805460ff1916909217909155517fa6625d2d26e786e2f473111bea4b2fcdbbf1863d883a2359989ce3a103d2972a9190a250565b3360009081526001602052604090206002015460ff166107ce5760405162461bcd60e51b8152602060048201526011602482015270155cd95c881b9bdd081d995c9a599a5959607a1b604482015260640161056c565b33600090815260016020526040902060020154610100900460ff1661082f5760405162461bcd60e51b815260206004820152601760248201527605573657220686173206e6f74207369676e65642045435604c1b604482015260640161056c565b6000818152600260205260409020600a81015460ff166108895760405162461bcd60e51b8152602060048201526015602482015274141c9bdc195c9d1e481b9bdd08185c1c1c9bdd9959605a1b604482015260640161056c565b600a810154610100900460ff16156108db5760405162461bcd60e51b8152602060048201526015602482015274141c9bdc195c9d1e48185b1c9958591e481cdbdb19605a1b604482015260640161056c565b60018101546001600160a01b031633036109375760405162461bcd60e51b815260206004820152601760248201527f43616e6e6f7420627579206f776e2070726f7065727479000000000000000000604482015260640161056c565b80600501543410156109825760405162461bcd60e51b8152602060048201526014602482015273125b9cdd59999a58da595b9d081c185e5b595b9d60621b604482015260640161056c565b6001810154600a8201805461ff001916610100179055600580546001600160a01b03909216919060006109b483611543565b9091555050600580546000818152600360208190526040808320938455600184018890556002840180546001600160a01b0388166001600160a01b0319918216811790925592850180549093163317909255868501805460048601554295850195909555935493519293909281156108fc0292818181858888f19350505050158015610a44573d6000803e3d6000fd5b508260050154341115610a9057600583015433906108fc90610a66903461170f565b6040518115909202916000818181858888f19350505050158015610a8e573d6000803e3d6000fd5b505b336001600160a01b0316826001600160a01b0316857fddd64180d9701c7ede08673ac8106484ff983a472929330d4fbde4e35d65cb068660050154604051610ada91815260200190565b60405180910390a450505050565b600160205260009081526040902080548190610b0390611572565b80601f0160208091040260200160405190810160405280929190818152602001828054610b2f90611572565b8015610b7c5780601f10610b5157610100808354040283529160200191610b7c565b820191906000526020600020905b815481529060010190602001808311610b5f57829003601f168201915b505050505090806001018054610b9190611572565b80601f0160208091040260200160405190810160405280929190818152602001828054610bbd90611572565b8015610c0a5780601f10610bdf57610100808354040283529160200191610c0a565b820191906000526020600020905b815481529060010190602001808311610bed57829003601f168201915b5050506002909301549192505060ff8082169161010090041684565b6060600060015b6005548111610c6f57600081815260036020526040902060010154849003610c5d5781610c5981611543565b9250505b80610c6781611543565b915050610c2d565b5060008167ffffffffffffffff811115610c8b57610c8b61114b565b604051908082528060200260200182016040528015610cb4578160200160208202803683370190505b5060009250905060015b60055481116104a257600081815260036020526040902060010154859003610d0c5780828481518110610cf357610cf361155c565b602090810291909101015282610d0881611543565b9350505b80610d1681611543565b915050610cbe565b6000546001600160a01b03163314610d485760405162461bcd60e51b815260040161056c906116ce565b600081815260026020526040808220600a01805460ff191660011790555182917feb0e71efd80096e9d126bdde717795886189ce0d8cb53d03dfec442e37b1d02091a250565b600260208190526000918252604090912080546001820154928201805491936001600160a01b03169291610dc190611572565b80601f0160208091040260200160405190810160405280929190818152602001828054610ded90611572565b8015610e3a5780601f10610e0f57610100808354040283529160200191610e3a565b820191906000526020600020905b815481529060010190602001808311610e1d57829003601f168201915b505050505090806003018054610e4f90611572565b80601f0160208091040260200160405190810160405280929190818152602001828054610e7b90611572565b8015610ec85780601f10610e9d57610100808354040283529160200191610ec8565b820191906000526020600020905b815481529060010190602001808311610eab57829003601f168201915b505050505090806004018054610edd90611572565b80601f0160208091040260200160405190810160405280929190818152602001828054610f0990611572565b8015610f565780601f10610f2b57610100808354040283529160200191610f56565b820191906000526020600020905b815481529060010190602001808311610f3957829003601f168201915b505050505090806005015490806006015490806007015490806009018054610f7d90611572565b80601f0160208091040260200160405190810160405280929190818152602001828054610fa990611572565b8015610ff65780601f10610fcb57610100808354040283529160200191610ff6565b820191906000526020600020905b815481529060010190602001808311610fd957829003601f168201915b505050600a909301549192505060ff808216916101009004168b565b828054828255906000526020600020908101928215611058579160200282015b82811115611058578251829061104890826115fb565b5091602001919060010190611032565b50611064929150611068565b5090565b8082111561106457600061107c8282611085565b50600101611068565b50805461109190611572565b6000825580601f106110a1575050565b601f0160209004906000526020600020908101906110bf91906110c2565b50565b5b8082111561106457600081556001016110c3565b6000602082840312156110e957600080fd5b81356001600160a01b038116811461110057600080fd5b9392505050565b6020808252825182820181905260009190848201906040850190845b8181101561113f57835183529284019291840191600101611123565b50909695505050505050565b634e487b7160e01b600052604160045260246000fd5b604051601f8201601f1916810167ffffffffffffffff8111828210171561118a5761118a61114b565b604052919050565b600082601f8301126111a357600080fd5b813567ffffffffffffffff8111156111bd576111bd61114b565b6111d0601f8201601f1916602001611161565b8181528460208386010111156111e557600080fd5b816020850160208301376000918101602001919091529392505050565b6000806040838503121561121557600080fd5b823567ffffffffffffffff8082111561122d57600080fd5b61123986838701611192565b9350602085013591508082111561124f57600080fd5b5061125c85828601611192565b9150509250929050565b600082601f83011261127757600080fd5b8135602067ffffffffffffffff808311156112945761129461114b565b8260051b6112a3838201611161565b93845285810183019383810190888611156112bd57600080fd5b84880192505b858310156112f9578235848111156112db5760008081fd5b6112e98a87838c0101611192565b83525091840191908401906112c3565b98975050505050505050565b600080600080600080600080610100898b03121561132257600080fd5b883567ffffffffffffffff8082111561133a57600080fd5b6113468c838d01611192565b995060208b013591508082111561135c57600080fd5b6113688c838d01611192565b985060408b013591508082111561137e57600080fd5b61138a8c838d01611192565b975060608b0135965060808b0135955060a08b0135945060c08b01359150808211156113b557600080fd5b6113c18c838d01611266565b935060e08b01359150808211156113d757600080fd5b506113e48b828c01611192565b9150509295985092959890939650565b60006020828403121561140657600080fd5b5035919050565b6000815180845260005b8181101561143357602081850181015186830182015201611417565b506000602082860101526020601f19601f83011685010191505092915050565b608081526000611466608083018761140d565b8281036020840152611478818761140d565b9415156040840152505090151560609091015292915050565b8b81526001600160a01b038b166020820152610160604082018190526000906114bc8382018d61140d565b905082810360608401526114d0818c61140d565b905082810360808401526114e4818b61140d565b90508860a08401528760c08401528660e084015282810361010084015261150b818761140d565b9415156101208401525050901515610140909101529998505050505050505050565b634e487b7160e01b600052601160045260246000fd5b6000600182016115555761155561152d565b5060010190565b634e487b7160e01b600052603260045260246000fd5b600181811c9082168061158657607f821691505b6020821081036115a657634e487b7160e01b600052602260045260246000fd5b50919050565b601f8211156115f657600081815260208120601f850160051c810160208610156115d35750805b601f850160051c820191505b818110156115f2578281556001016115df565b5050505b505050565b815167ffffffffffffffff8111156116155761161561114b565b611629816116238454611572565b846115ac565b602080601f83116001811461165e57600084156116465750858301515b600019600386901b1c1916600185901b1785556115f2565b600085815260208120601f198616915b8281101561168d5788860151825594840194600190910190840161166e565b50858210156116ab5787850151600019600388901b60f8161c191681555b5050505050600190811b01905550565b602081526000611100602083018461140d565b60208082526021908201527f4f6e6c792061646d696e2063616e2063616c6c20746869732066756e6374696f6040820152603760f91b606082015260800190565b818103818111156117225761172261152d565b9291505056fea2646970667358221220130ef8004dd405ff753011e7a8e4fc7091e61ff7edecbe91fd8da37c88365d9e64736f6c63430008130033",
  "immutableReferences": {},
  "source": "\r\n// SPDX-License-Identifier: MIT\r\npragma solidity ^0.8.0;\r\n\r\ncontract RealEstate {\r\n    address public admin;\r\n    \r\n    struct User {\r\n        string name;\r\n        string kycDocument;\r\n        bool isVerified;\r\n        bool hasSignedECP;\r\n    }\r\n    \r\n    struct Property {\r\n        uint256 id;\r\n        address owner;\r\n        string title;\r\n        string description;\r\n        string location;\r\n        uint256 price;\r\n        uint256 roomCount;\r\n        uint256 squareMeters;\r\n        string[] images;\r\n        string documents;\r\n        bool isApproved;\r\n        bool isSold;\r\n    }\r\n    \r\n    struct Transaction {\r\n        uint256 id;\r\n        uint256 propertyId;\r\n        address seller;\r\n        address buyer;\r\n        uint256 price;\r\n        uint256 timestamp;\r\n    }\r\n    \r\n    mapping(address => User) public users;\r\n    mapping(uint256 => Property) public properties;\r\n    mapping(uint256 => Transaction) public transactions;\r\n    \r\n    uint256 public propertyCounter;\r\n    uint256 public transactionCounter;\r\n    \r\n    event UserRegistered(address indexed userAddress, string name);\r\n    event UserVerified(address indexed userAddress);\r\n    event ECPSigned(address indexed userAddress);\r\n    event PropertyListed(uint256 indexed propertyId, address indexed owner);\r\n    event PropertyApproved(uint256 indexed propertyId);\r\n    event PropertySold(uint256 indexed propertyId, address indexed seller, address indexed buyer, uint256 price);\r\n    \r\n    constructor() {\r\n        admin = msg.sender;\r\n        \r\n        // Auto-verify admin\r\n        users[admin].isVerified = true;\r\n        users[admin].hasSignedECP = true;\r\n        users[admin].name = \"Admin\";\r\n    }\r\n    \r\n    modifier onlyAdmin() {\r\n        require(msg.sender == admin, \"Only admin can call this function\");\r\n        _;\r\n    }\r\n    \r\n    modifier onlyVerified() {\r\n        require(users[msg.sender].isVerified, \"User not verified\");\r\n        _;\r\n    }\r\n    \r\n    modifier onlyECPSigned() {\r\n        require(users[msg.sender].hasSignedECP, \"User has not signed ECP\");\r\n        _;\r\n    }\r\n    \r\n    function registerUser(string memory _name, string memory _kycDocument) public {\r\n        User storage user = users[msg.sender];\r\n        user.name = _name;\r\n        user.kycDocument = _kycDocument;\r\n        \r\n        emit UserRegistered(msg.sender, _name);\r\n    }\r\n    \r\n    function verifyUser(address _userAddress) public onlyAdmin {\r\n        users[_userAddress].isVerified = true;\r\n        \r\n        emit UserVerified(_userAddress);\r\n    }\r\n    \r\n    function signECP() public {\r\n        users[msg.sender].hasSignedECP = true;\r\n        \r\n        emit ECPSigned(msg.sender);\r\n    }\r\n    \r\n    function listProperty(\r\n        string memory _title,\r\n        string memory _description,\r\n        string memory _location,\r\n        uint256 _price,\r\n        uint256 _roomCount,\r\n        uint256 _squareMeters,\r\n        string[] memory _images,\r\n        string memory _documents\r\n    ) public onlyVerified onlyECPSigned {\r\n        propertyCounter++;\r\n        \r\n        Property storage property = properties[propertyCounter];\r\n        property.id = propertyCounter;\r\n        property.owner = msg.sender;\r\n        property.title = _title;\r\n        property.description = _description;\r\n        property.location = _location;\r\n        property.price = _price;\r\n        property.roomCount = _roomCount;\r\n        property.squareMeters = _squareMeters;\r\n        property.images = _images;\r\n        property.documents = _documents;\r\n        \r\n        emit PropertyListed(propertyCounter, msg.sender);\r\n    }\r\n    \r\n    function approveProperty(uint256 _propertyId) public onlyAdmin {\r\n        properties[_propertyId].isApproved = true;\r\n        \r\n        emit PropertyApproved(_propertyId);\r\n    }\r\n    \r\n    function buyProperty(uint256 _propertyId) public payable onlyVerified onlyECPSigned {\r\n        Property storage property = properties[_propertyId];\r\n        \r\n        require(property.isApproved, \"Property not approved\");\r\n        require(!property.isSold, \"Property already sold\");\r\n        require(msg.sender != property.owner, \"Cannot buy own property\");\r\n        require(msg.value >= property.price, \"Insufficient payment\");\r\n        \r\n        address seller = property.owner;\r\n        \r\n        // Transfer ownership\r\n        property.isSold = true;\r\n        \r\n        // Create transaction record\r\n        transactionCounter++;\r\n        Transaction storage transaction = transactions[transactionCounter];\r\n        transaction.id = transactionCounter;\r\n        transaction.propertyId = _propertyId;\r\n        transaction.seller = seller;\r\n        transaction.buyer = msg.sender;\r\n        transaction.price = property.price;\r\n        transaction.timestamp = block.timestamp;\r\n        \r\n        // Transfer funds to seller\r\n        payable(seller).transfer(property.price);\r\n        \r\n        // Refund excess payment\r\n        if (msg.value > property.price) {\r\n            payable(msg.sender).transfer(msg.value - property.price);\r\n        }\r\n        \r\n        emit PropertySold(_propertyId, seller, msg.sender, property.price);\r\n    }\r\n    \r\n    function getPropertyCount() public view returns (uint256) {\r\n        return propertyCounter;\r\n    }\r\n    \r\n    function getTransactionCount() public view returns (uint256) {\r\n        return transactionCounter;\r\n    }\r\n    \r\n    function getUserProperties(address _userAddress) public view returns (uint256[] memory) {\r\n        uint256 count = 0;\r\n        \r\n        for (uint256 i = 1; i <= propertyCounter; i++) {\r\n            if (properties[i].owner == _userAddress) {\r\n                count++;\r\n            }\r\n        }\r\n        \r\n        uint256[] memory userProperties = new uint256[](count);\r\n        count = 0;\r\n        \r\n        for (uint256 i = 1; i <= propertyCounter; i++) {\r\n            if (properties[i].owner == _userAddress) {\r\n                userProperties[count] = i;\r\n                count++;\r\n            }\r\n        }\r\n        \r\n        return userProperties;\r\n    }\r\n    \r\n    function getPropertyTransactions(uint256 _propertyId) public view returns (uint256[] memory) {\r\n        uint256 count = 0;\r\n        \r\n        for (uint256 i = 1; i <= transactionCounter; i++) {\r\n            if (transactions[i].propertyId == _propertyId) {\r\n                count++;\r\n            }\r\n        }\r\n        \r\n        uint256[] memory propertyTransactions = new uint256[](count);\r\n        count = 0;\r\n        \r\n        for (uint256 i = 1; i <= transactionCounter; i++) {\r\n            if (transactions[i].propertyId == _propertyId) {\r\n                propertyTransactions[count] = i;\r\n                count++;\r\n            }\r\n        }\r\n        \r\n        return propertyTransactions;\r\n    }\r\n}\r\n",
  "sourcePath": "C:\\Users\\Asus\\Desktop\\kek2\\crypto-home-kazakhstan\\src\\contracts\\RealEstate.sol",
  "compiler": {
    "name": "solc",
    "version": "0.8.19+commit.7dd6d404.Emscripten.clang"
  },
  "schemaVersion": "3.4.16",
  "updatedAt": "2025-04-28T12:51:39.787Z",
  "networkType": "ethereum",
  "devdoc": {
    "kind": "dev",
    "methods": {},
    "version": 1
  },
  "userdoc": {
    "kind": "user",
    "methods": {},
    "version": 1
  }
}